{
  "contractName": "AssetContract",
  "abi": [
    {
      "inputs": [],
      "stateMutability": "payable",
      "type": "constructor",
      "payable": true
    },
    {
      "inputs": [],
      "name": "admin",
      "outputs": [
        {
          "internalType": "address payable",
          "name": "",
          "type": "address"
        }
      ],
      "stateMutability": "view",
      "type": "function",
      "constant": true
    },
    {
      "inputs": [
        {
          "internalType": "uint256",
          "name": "",
          "type": "uint256"
        }
      ],
      "name": "assets",
      "outputs": [
        {
          "internalType": "address payable",
          "name": "owner",
          "type": "address"
        },
        {
          "internalType": "address",
          "name": "rentedTo",
          "type": "address"
        },
        {
          "internalType": "string",
          "name": "jsonHash",
          "type": "string"
        },
        {
          "internalType": "string",
          "name": "photoHash",
          "type": "string"
        },
        {
          "internalType": "bool",
          "name": "forRent",
          "type": "bool"
        },
        {
          "internalType": "bool",
          "name": "forSale",
          "type": "bool"
        },
        {
          "internalType": "uint256",
          "name": "salePrice",
          "type": "uint256"
        },
        {
          "internalType": "uint256",
          "name": "rentPrice",
          "type": "uint256"
        }
      ],
      "stateMutability": "view",
      "type": "function",
      "constant": true
    },
    {
      "inputs": [
        {
          "internalType": "address",
          "name": "",
          "type": "address"
        }
      ],
      "name": "balanceOf",
      "outputs": [
        {
          "internalType": "uint256",
          "name": "",
          "type": "uint256"
        }
      ],
      "stateMutability": "view",
      "type": "function",
      "constant": true
    },
    {
      "inputs": [
        {
          "internalType": "address",
          "name": "",
          "type": "address"
        }
      ],
      "name": "ownerAssetCount",
      "outputs": [
        {
          "internalType": "uint256",
          "name": "",
          "type": "uint256"
        }
      ],
      "stateMutability": "view",
      "type": "function",
      "constant": true
    },
    {
      "inputs": [],
      "name": "rentableCount",
      "outputs": [
        {
          "internalType": "uint256",
          "name": "",
          "type": "uint256"
        }
      ],
      "stateMutability": "view",
      "type": "function",
      "constant": true
    },
    {
      "inputs": [],
      "name": "sellableCount",
      "outputs": [
        {
          "internalType": "uint256",
          "name": "",
          "type": "uint256"
        }
      ],
      "stateMutability": "view",
      "type": "function",
      "constant": true
    },
    {
      "inputs": [
        {
          "internalType": "uint256",
          "name": "",
          "type": "uint256"
        }
      ],
      "name": "tenancyExpiry",
      "outputs": [
        {
          "internalType": "uint256",
          "name": "",
          "type": "uint256"
        }
      ],
      "stateMutability": "view",
      "type": "function",
      "constant": true
    },
    {
      "inputs": [
        {
          "internalType": "address",
          "name": "",
          "type": "address"
        }
      ],
      "name": "tenantAssetCount",
      "outputs": [
        {
          "internalType": "uint256",
          "name": "",
          "type": "uint256"
        }
      ],
      "stateMutability": "view",
      "type": "function",
      "constant": true
    },
    {
      "inputs": [],
      "name": "assetsCount",
      "outputs": [
        {
          "internalType": "uint256",
          "name": "",
          "type": "uint256"
        }
      ],
      "stateMutability": "view",
      "type": "function",
      "constant": true
    },
    {
      "inputs": [
        {
          "internalType": "string",
          "name": "_jsonHash",
          "type": "string"
        },
        {
          "internalType": "string",
          "name": "_photoHash",
          "type": "string"
        }
      ],
      "name": "createAsset",
      "outputs": [
        {
          "internalType": "uint256",
          "name": "",
          "type": "uint256"
        }
      ],
      "stateMutability": "nonpayable",
      "type": "function"
    },
    {
      "inputs": [
        {
          "internalType": "uint256",
          "name": "_assetId",
          "type": "uint256"
        }
      ],
      "name": "simulateExpiry",
      "outputs": [],
      "stateMutability": "nonpayable",
      "type": "function"
    },
    {
      "inputs": [
        {
          "internalType": "uint256",
          "name": "_assetId",
          "type": "uint256"
        },
        {
          "internalType": "string",
          "name": "_jsonHash",
          "type": "string"
        },
        {
          "internalType": "string",
          "name": "_photoHash",
          "type": "string"
        }
      ],
      "name": "updateAsset",
      "outputs": [],
      "stateMutability": "nonpayable",
      "type": "function"
    },
    {
      "inputs": [
        {
          "internalType": "uint256",
          "name": "_assetId",
          "type": "uint256"
        },
        {
          "internalType": "uint256",
          "name": "_price",
          "type": "uint256"
        }
      ],
      "name": "putOnSale",
      "outputs": [],
      "stateMutability": "nonpayable",
      "type": "function"
    },
    {
      "inputs": [
        {
          "internalType": "uint256",
          "name": "_assetId",
          "type": "uint256"
        },
        {
          "internalType": "uint256",
          "name": "_price",
          "type": "uint256"
        }
      ],
      "name": "putOnRent",
      "outputs": [],
      "stateMutability": "nonpayable",
      "type": "function"
    },
    {
      "inputs": [
        {
          "internalType": "uint256",
          "name": "_assetId",
          "type": "uint256"
        }
      ],
      "name": "putOffSale",
      "outputs": [],
      "stateMutability": "nonpayable",
      "type": "function"
    },
    {
      "inputs": [
        {
          "internalType": "uint256",
          "name": "_assetId",
          "type": "uint256"
        }
      ],
      "name": "putOffRent",
      "outputs": [],
      "stateMutability": "nonpayable",
      "type": "function"
    },
    {
      "inputs": [
        {
          "internalType": "uint256",
          "name": "_assetId",
          "type": "uint256"
        }
      ],
      "name": "removeTenant",
      "outputs": [],
      "stateMutability": "nonpayable",
      "type": "function"
    },
    {
      "inputs": [
        {
          "internalType": "uint256",
          "name": "_assetId",
          "type": "uint256"
        }
      ],
      "name": "buyAsset",
      "outputs": [],
      "stateMutability": "payable",
      "type": "function",
      "payable": true
    },
    {
      "inputs": [
        {
          "internalType": "uint256",
          "name": "_assetId",
          "type": "uint256"
        }
      ],
      "name": "rentAsset",
      "outputs": [],
      "stateMutability": "payable",
      "type": "function",
      "payable": true
    },
    {
      "inputs": [],
      "name": "getRentableAssets",
      "outputs": [
        {
          "internalType": "uint256[]",
          "name": "",
          "type": "uint256[]"
        }
      ],
      "stateMutability": "view",
      "type": "function",
      "constant": true
    },
    {
      "inputs": [],
      "name": "getSellableAssets",
      "outputs": [
        {
          "internalType": "uint256[]",
          "name": "",
          "type": "uint256[]"
        }
      ],
      "stateMutability": "view",
      "type": "function",
      "constant": true
    },
    {
      "inputs": [
        {
          "internalType": "address",
          "name": "_address",
          "type": "address"
        }
      ],
      "name": "getAssetsByOwner",
      "outputs": [
        {
          "internalType": "uint256[]",
          "name": "",
          "type": "uint256[]"
        }
      ],
      "stateMutability": "view",
      "type": "function",
      "constant": true
    },
    {
      "inputs": [
        {
          "internalType": "address",
          "name": "_address",
          "type": "address"
        }
      ],
      "name": "getRentedAssetsByTenant",
      "outputs": [
        {
          "internalType": "uint256[]",
          "name": "",
          "type": "uint256[]"
        }
      ],
      "stateMutability": "view",
      "type": "function",
      "constant": true
    },
    {
      "inputs": [
        {
          "internalType": "uint256",
          "name": "_assetId",
          "type": "uint256"
        }
      ],
      "name": "expired",
      "outputs": [
        {
          "internalType": "bool",
          "name": "",
          "type": "bool"
        }
      ],
      "stateMutability": "view",
      "type": "function",
      "constant": true
    },
    {
      "inputs": [],
      "name": "withdraw",
      "outputs": [],
      "stateMutability": "nonpayable",
      "type": "function"
    }
  ],
  "bytecode": "0x6080604052336000806101000a81548173ffffffffffffffffffffffffffffffffffffffff021916908373ffffffffffffffffffffffffffffffffffffffff1602179055506133c8806100536000396000f3fe6080604052600436106101655760003560e01c806370a08231116100d1578063ba065e1f1161008a578063cd9df19011610064578063cd9df1901461052f578063cf35bdd01461055a578063f685f3ba1461059e578063f851a440146105db57610165565b8063ba065e1f14610499578063bb909f43146104d6578063c872dbcd1461051357610165565b806370a08231146103795780637dd2e993146103b657806390c43087146103df578063981f2d2a146104085780639cb799f614610431578063a2a55b681461045c57610165565b806329489ab81161012357806329489ab81461026b57806336f7992b146102965780633ccfd60b146102bf57806352d4fbe3146102d657806364d41129146103135780636a50f1941461033c57610165565b806210d9ff1461016a5780630506d5921461019557806307f77c4f146101c0578063110d35b8146101e957806324f9d08d14610205578063276f09341461022e575b600080fd5b34801561017657600080fd5b5061017f610606565b60405161018c9190612d69565b60405180910390f35b3480156101a157600080fd5b506101aa61060c565b6040516101b79190612bec565b60405180910390f35b3480156101cc57600080fd5b506101e760048036038101906101e291906128ad565b6106f1565b005b61020360048036038101906101fe91906127f5565b6108dc565b005b34801561021157600080fd5b5061022c600480360381019061022791906127f5565b610f2b565b005b34801561023a57600080fd5b5061025560048036038101906102509190612750565b6110d6565b6040516102629190612bec565b60405180910390f35b34801561027757600080fd5b5061028061123b565b60405161028d9190612bec565b60405180910390f35b3480156102a257600080fd5b506102bd60048036038101906102b891906128ad565b611320565b005b3480156102cb57600080fd5b506102d4611458565b005b3480156102e257600080fd5b506102fd60048036038101906102f891906127f5565b611525565b60405161030a9190612d69565b60405180910390f35b34801561031f57600080fd5b5061033a600480360381019061033591906127f5565b61153d565b005b34801561034857600080fd5b50610363600480360381019061035e9190612750565b61160e565b6040516103709190612d69565b60405180910390f35b34801561038557600080fd5b506103a0600480360381019061039b9190612750565b611626565b6040516103ad9190612d69565b60405180910390f35b3480156103c257600080fd5b506103dd60048036038101906103d891906127f5565b61163e565b005b3480156103eb57600080fd5b5061040660048036038101906104019190612822565b611755565b005b34801561041457600080fd5b5061042f600480360381019061042a91906127f5565b611883565b005b34801561043d57600080fd5b506104466119bc565b6040516104539190612d69565b60405180910390f35b34801561046857600080fd5b50610483600480360381019061047e919061277d565b6119c2565b6040516104909190612d69565b60405180910390f35b3480156104a557600080fd5b506104c060048036038101906104bb91906127f5565b611cd8565b6040516104cd9190612c0e565b60405180910390f35b3480156104e257600080fd5b506104fd60048036038101906104f89190612750565b611cf8565b60405161050a9190612bec565b60405180910390f35b61052d600480360381019061052891906127f5565b611f1f565b005b34801561053b57600080fd5b506105446122a9565b6040516105519190612d69565b60405180910390f35b34801561056657600080fd5b50610581600480360381019061057c91906127f5565b6122b6565b604051610595989796959493929190612b60565b60405180910390f35b3480156105aa57600080fd5b506105c560048036038101906105c09190612750565b612478565b6040516105d29190612d69565b60405180910390f35b3480156105e757600080fd5b506105f0612490565b6040516105fd9190612b45565b60405180910390f35b60075481565b6060600060065467ffffffffffffffff81111561062c5761062b6130b8565b5b60405190808252806020026020018201604052801561065a5781602001602082028036833780820191505090505b5090506000805b6001805490508110156106e8576001818154811061068257610681613089565b5b906000526020600020906007020160040160019054906101000a900460ff16156106d557808383815181106106ba576106b9613089565b5b60200260200101818152505081806106d190612fe2565b9250505b80806106e090612fe2565b915050610661565b50819250505090565b813373ffffffffffffffffffffffffffffffffffffffff166001828154811061071d5761071c613089565b5b906000526020600020906007020160000160009054906101000a900473ffffffffffffffffffffffffffffffffffffffff1673ffffffffffffffffffffffffffffffffffffffff16146107a5576040517f08c379a000000000000000000000000000000000000000000000000000000000815260040161079c90612c49565b60405180910390fd5b600183815481106107b9576107b8613089565b5b906000526020600020906007020160010160009054906101000a900473ffffffffffffffffffffffffffffffffffffffff1673ffffffffffffffffffffffffffffffffffffffff163373ffffffffffffffffffffffffffffffffffffffff1614610858576040517f08c379a000000000000000000000000000000000000000000000000000000000815260040161084f90612c69565b60405180910390fd5b816001848154811061086d5761086c613089565b5b906000526020600020906007020160060181905550600180848154811061089757610896613089565b5b906000526020600020906007020160040160006101000a81548160ff021916908315150217905550600760008154809291906108d290612fe2565b9190505550505050565b600181815481106108f0576108ef613089565b5b906000526020600020906007020160040160019054906101000a900460ff1661094e576040517f08c379a000000000000000000000000000000000000000000000000000000000815260040161094590612cc9565b60405180910390fd5b6001818154811061096257610961613089565b5b9060005260206000209060070201600501543410156109b6576040517f08c379a00000000000000000000000000000000000000000000000000000000081526004016109ad90612c29565b60405180910390fd5b600181815481106109ca576109c9613089565b5b906000526020600020906007020160000160009054906101000a900473ffffffffffffffffffffffffffffffffffffffff1673ffffffffffffffffffffffffffffffffffffffff163373ffffffffffffffffffffffffffffffffffffffff161415610a6a576040517f08c379a0000000000000000000000000000000000000000000000000000000008152600401610a6190612ca9565b60405180910390fd5b600060018281548110610a8057610a7f613089565b5b906000526020600020906007020160040160016101000a81548160ff021916908315150217905550600060018281548110610abe57610abd613089565b5b9060005260206000209060070201600501819055506002600060018381548110610aeb57610aea613089565b5b906000526020600020906007020160000160009054906101000a900473ffffffffffffffffffffffffffffffffffffffff1673ffffffffffffffffffffffffffffffffffffffff1673ffffffffffffffffffffffffffffffffffffffff1681526020019081526020016000206000815480929190610b6890612f55565b9190505550346003600060018481548110610b8657610b85613089565b5b906000526020600020906007020160000160009054906101000a900473ffffffffffffffffffffffffffffffffffffffff1673ffffffffffffffffffffffffffffffffffffffff1673ffffffffffffffffffffffffffffffffffffffff1681526020019081526020016000206000828254610c019190612e2f565b925050819055503373ffffffffffffffffffffffffffffffffffffffff1660018281548110610c3357610c32613089565b5b906000526020600020906007020160010160009054906101000a900473ffffffffffffffffffffffffffffffffffffffff1673ffffffffffffffffffffffffffffffffffffffff161415610cef57610c8a816124b4565b3360018281548110610c9f57610c9e613089565b5b906000526020600020906007020160010160006101000a81548173ffffffffffffffffffffffffffffffffffffffff021916908373ffffffffffffffffffffffffffffffffffffffff1602179055505b60018181548110610d0357610d02613089565b5b906000526020600020906007020160010160009054906101000a900473ffffffffffffffffffffffffffffffffffffffff1673ffffffffffffffffffffffffffffffffffffffff1660018281548110610d5f57610d5e613089565b5b906000526020600020906007020160000160009054906101000a900473ffffffffffffffffffffffffffffffffffffffff1673ffffffffffffffffffffffffffffffffffffffff161415610e12573360018281548110610dc257610dc1613089565b5b906000526020600020906007020160010160006101000a81548173ffffffffffffffffffffffffffffffffffffffff021916908373ffffffffffffffffffffffffffffffffffffffff1602179055505b3360018281548110610e2757610e26613089565b5b906000526020600020906007020160000160006101000a81548173ffffffffffffffffffffffffffffffffffffffff021916908373ffffffffffffffffffffffffffffffffffffffff1602179055506002600060018381548110610e8e57610e8d613089565b5b906000526020600020906007020160000160009054906101000a900473ffffffffffffffffffffffffffffffffffffffff1673ffffffffffffffffffffffffffffffffffffffff1673ffffffffffffffffffffffffffffffffffffffff1681526020019081526020016000206000815480929190610f0b90612fe2565b919050555060066000815480929190610f2390612f55565b919050555050565b803373ffffffffffffffffffffffffffffffffffffffff1660018281548110610f5757610f56613089565b5b906000526020600020906007020160000160009054906101000a900473ffffffffffffffffffffffffffffffffffffffff1673ffffffffffffffffffffffffffffffffffffffff1614610fdf576040517f08c379a0000000000000000000000000000000000000000000000000000000008152600401610fd690612c49565b60405180910390fd5b60018281548110610ff357610ff2613089565b5b906000526020600020906007020160040160019054906101000a900460ff16611051576040517f08c379a000000000000000000000000000000000000000000000000000000000815260040161104890612cc9565b60405180910390fd5b60006001838154811061106757611066613089565b5b90600052602060002090600702016005018190555060006001838154811061109257611091613089565b5b906000526020600020906007020160040160016101000a81548160ff021916908315150217905550600660008154809291906110cd90612f55565b91905055505050565b60606000600260008473ffffffffffffffffffffffffffffffffffffffff1673ffffffffffffffffffffffffffffffffffffffff1681526020019081526020016000205467ffffffffffffffff811115611133576111326130b8565b5b6040519080825280602002602001820160405280156111615781602001602082028036833780820191505090505b5090506000805b600180549050811015611230578473ffffffffffffffffffffffffffffffffffffffff16600182815481106111a05761119f613089565b5b906000526020600020906007020160000160009054906101000a900473ffffffffffffffffffffffffffffffffffffffff1673ffffffffffffffffffffffffffffffffffffffff16141561121d578083838151811061120257611201613089565b5b602002602001018181525050818061121990612fe2565b9250505b808061122890612fe2565b915050611168565b508192505050919050565b6060600060075467ffffffffffffffff81111561125b5761125a6130b8565b5b6040519080825280602002602001820160405280156112895781602001602082028036833780820191505090505b5090506000805b60018054905081101561131757600181815481106112b1576112b0613089565b5b906000526020600020906007020160040160009054906101000a900460ff161561130457808383815181106112e9576112e8613089565b5b602002602001018181525050818061130090612fe2565b9250505b808061130f90612fe2565b915050611290565b50819250505090565b813373ffffffffffffffffffffffffffffffffffffffff166001828154811061134c5761134b613089565b5b906000526020600020906007020160000160009054906101000a900473ffffffffffffffffffffffffffffffffffffffff1673ffffffffffffffffffffffffffffffffffffffff16146113d4576040517f08c379a00000000000000000000000000000000000000000000000000000000081526004016113cb90612c49565b60405180910390fd5b81600184815481106113e9576113e8613089565b5b906000526020600020906007020160050181905550600180848154811061141357611412613089565b5b906000526020600020906007020160040160016101000a81548160ff0219169083151502179055506006600081548092919061144e90612fe2565b9190505550505050565b3373ffffffffffffffffffffffffffffffffffffffff166108fc600360003373ffffffffffffffffffffffffffffffffffffffff1673ffffffffffffffffffffffffffffffffffffffff168152602001908152602001600020549081150290604051600060405180830381858888f193505050501580156114dd573d6000803e3d6000fd5b506000600360003373ffffffffffffffffffffffffffffffffffffffff1673ffffffffffffffffffffffffffffffffffffffff16815260200190815260200160002081905550565b60056020528060005260406000206000915090505481565b803373ffffffffffffffffffffffffffffffffffffffff166001828154811061156957611568613089565b5b906000526020600020906007020160000160009054906101000a900473ffffffffffffffffffffffffffffffffffffffff1673ffffffffffffffffffffffffffffffffffffffff16146115f1576040517f08c379a00000000000000000000000000000000000000000000000000000000081526004016115e890612c49565b60405180910390fd5b600060056000848152602001908152602001600020819055505050565b60046020528060005260406000206000915090505481565b60036020528060005260406000206000915090505481565b803373ffffffffffffffffffffffffffffffffffffffff166001828154811061166a57611669613089565b5b906000526020600020906007020160000160009054906101000a900473ffffffffffffffffffffffffffffffffffffffff1673ffffffffffffffffffffffffffffffffffffffff16146116f2576040517f08c379a00000000000000000000000000000000000000000000000000000000081526004016116e990612c49565b60405180910390fd5b4260056000848152602001908152602001600020541115611748576040517f08c379a000000000000000000000000000000000000000000000000000000000815260040161173f90612d49565b60405180910390fd5b611751826124b4565b5050565b823373ffffffffffffffffffffffffffffffffffffffff166001828154811061178157611780613089565b5b906000526020600020906007020160000160009054906101000a900473ffffffffffffffffffffffffffffffffffffffff1673ffffffffffffffffffffffffffffffffffffffff1614611809576040517f08c379a000000000000000000000000000000000000000000000000000000000815260040161180090612c49565b60405180910390fd5b826001858154811061181e5761181d613089565b5b90600052602060002090600702016002019080519060200190611842929190612613565b50816001858154811061185857611857613089565b5b9060005260206000209060070201600301908051906020019061187c929190612613565b5050505050565b803373ffffffffffffffffffffffffffffffffffffffff16600182815481106118af576118ae613089565b5b906000526020600020906007020160000160009054906101000a900473ffffffffffffffffffffffffffffffffffffffff1673ffffffffffffffffffffffffffffffffffffffff1614611937576040517f08c379a000000000000000000000000000000000000000000000000000000000815260040161192e90612c49565b60405180910390fd5b60006001838154811061194d5761194c613089565b5b90600052602060002090600702016006018190555060006001838154811061197857611977613089565b5b906000526020600020906007020160040160006101000a81548160ff021916908315150217905550600760008154809291906119b390612f55565b91905055505050565b60065481565b60003373ffffffffffffffffffffffffffffffffffffffff1660008054906101000a900473ffffffffffffffffffffffffffffffffffffffff1673ffffffffffffffffffffffffffffffffffffffff1614611a52576040517f08c379a0000000000000000000000000000000000000000000000000000000008152600401611a4990612d29565b60405180910390fd5b60006040518061010001604052803373ffffffffffffffffffffffffffffffffffffffff1681526020013373ffffffffffffffffffffffffffffffffffffffff1681526020018581526020018481526020016000151581526020016000151581526020016000815260200160008152509050600181908060018154018082558091505060019003906000526020600020906007020160009091909190915060008201518160000160006101000a81548173ffffffffffffffffffffffffffffffffffffffff021916908373ffffffffffffffffffffffffffffffffffffffff16021790555060208201518160010160006101000a81548173ffffffffffffffffffffffffffffffffffffffff021916908373ffffffffffffffffffffffffffffffffffffffff1602179055506040820151816002019080519060200190611b9a929190612613565b506060820151816003019080519060200190611bb7929190612613565b5060808201518160040160006101000a81548160ff02191690831515021790555060a08201518160040160016101000a81548160ff02191690831515021790555060c0820151816005015560e082015181600601555050600060018080549050611c219190612e85565b9050600260003373ffffffffffffffffffffffffffffffffffffffff1673ffffffffffffffffffffffffffffffffffffffff1681526020019081526020016000206000815480929190611c7390612fe2565b9190505550600460003373ffffffffffffffffffffffffffffffffffffffff1673ffffffffffffffffffffffffffffffffffffffff1681526020019081526020016000206000815480929190611cc890612fe2565b9190505550809250505092915050565b600042600560008481526020019081526020016000205411159050919050565b60606000600460008473ffffffffffffffffffffffffffffffffffffffff1673ffffffffffffffffffffffffffffffffffffffff1681526020019081526020016000205467ffffffffffffffff811115611d5557611d546130b8565b5b604051908082528060200260200182016040528015611d835781602001602082028036833780820191505090505b5090506000805b600180549050811015611f14578473ffffffffffffffffffffffffffffffffffffffff1660018281548110611dc257611dc1613089565b5b906000526020600020906007020160010160009054906101000a900473ffffffffffffffffffffffffffffffffffffffff1673ffffffffffffffffffffffffffffffffffffffff16148015611ecd575060018181548110611e2657611e25613089565b5b906000526020600020906007020160000160009054906101000a900473ffffffffffffffffffffffffffffffffffffffff1673ffffffffffffffffffffffffffffffffffffffff1660018281548110611e8257611e81613089565b5b906000526020600020906007020160010160009054906101000a900473ffffffffffffffffffffffffffffffffffffffff1673ffffffffffffffffffffffffffffffffffffffff1614155b15611f015780838381518110611ee657611ee5613089565b5b6020026020010181815250508180611efd90612fe2565b9250505b8080611f0c90612fe2565b915050611d8a565b508192505050919050565b60018181548110611f3357611f32613089565b5b906000526020600020906007020160040160009054906101000a900460ff16611f91576040517f08c379a0000000000000000000000000000000000000000000000000000000008152600401611f8890612ce9565b60405180910390fd5b60018181548110611fa557611fa4613089565b5b906000526020600020906007020160060154341015611ff9576040517f08c379a0000000000000000000000000000000000000000000000000000000008152600401611ff090612d09565b60405180910390fd5b6001818154811061200d5761200c613089565b5b906000526020600020906007020160000160009054906101000a900473ffffffffffffffffffffffffffffffffffffffff1673ffffffffffffffffffffffffffffffffffffffff163373ffffffffffffffffffffffffffffffffffffffff1614156120ad576040517f08c379a00000000000000000000000000000000000000000000000000000000081526004016120a490612c89565b60405180910390fd5b6000600182815481106120c3576120c2613089565b5b906000526020600020906007020160040160006101000a81548160ff02191690831515021790555060006001828154811061210157612100613089565b5b906000526020600020906007020160060181905550336001828154811061212b5761212a613089565b5b906000526020600020906007020160010160006101000a81548173ffffffffffffffffffffffffffffffffffffffff021916908373ffffffffffffffffffffffffffffffffffffffff16021790555034600360006001848154811061219357612192613089565b5b906000526020600020906007020160000160009054906101000a900473ffffffffffffffffffffffffffffffffffffffff1673ffffffffffffffffffffffffffffffffffffffff1673ffffffffffffffffffffffffffffffffffffffff168152602001908152602001600020600082825461220e9190612e2f565b92505081905550600460003373ffffffffffffffffffffffffffffffffffffffff1673ffffffffffffffffffffffffffffffffffffffff168152602001908152602001600020600081548092919061226590612fe2565b9190505550601e426122779190612e2f565b6005600083815260200190815260200160002081905550600760008154809291906122a190612f55565b919050555050565b6000600180549050905090565b600181815481106122c657600080fd5b90600052602060002090600702016000915090508060000160009054906101000a900473ffffffffffffffffffffffffffffffffffffffff16908060010160009054906101000a900473ffffffffffffffffffffffffffffffffffffffff169080600201805461233590612f7f565b80601f016020809104026020016040519081016040528092919081815260200182805461236190612f7f565b80156123ae5780601f10612383576101008083540402835291602001916123ae565b820191906000526020600020905b81548152906001019060200180831161239157829003601f168201915b5050505050908060030180546123c390612f7f565b80601f01602080910402602001604051908101604052809291908181526020018280546123ef90612f7f565b801561243c5780601f106124115761010080835404028352916020019161243c565b820191906000526020600020905b81548152906001019060200180831161241f57829003601f168201915b5050505050908060040160009054906101000a900460ff16908060040160019054906101000a900460ff16908060050154908060060154905088565b60026020528060005260406000206000915090505481565b60008054906101000a900473ffffffffffffffffffffffffffffffffffffffff1681565b6000600560008381526020019081526020016000208190555060046000600183815481106124e5576124e4613089565b5b906000526020600020906007020160010160009054906101000a900473ffffffffffffffffffffffffffffffffffffffff1673ffffffffffffffffffffffffffffffffffffffff1673ffffffffffffffffffffffffffffffffffffffff168152602001908152602001600020600081548092919061256290612f55565b91905055506001818154811061257b5761257a613089565b5b906000526020600020906007020160000160009054906101000a900473ffffffffffffffffffffffffffffffffffffffff16600182815481106125c1576125c0613089565b5b906000526020600020906007020160010160006101000a81548173ffffffffffffffffffffffffffffffffffffffff021916908373ffffffffffffffffffffffffffffffffffffffff16021790555050565b82805461261f90612f7f565b90600052602060002090601f0160209004810192826126415760008555612688565b82601f1061265a57805160ff1916838001178555612688565b82800160010185558215612688579182015b8281111561268757825182559160200191906001019061266c565b5b5090506126959190612699565b5090565b5b808211156126b257600081600090555060010161269a565b5090565b60006126c96126c484612da9565b612d84565b9050828152602081018484840111156126e5576126e46130ec565b5b6126f0848285612f13565b509392505050565b60008135905061270781613364565b92915050565b600082601f830112612722576127216130e7565b5b81356127328482602086016126b6565b91505092915050565b60008135905061274a8161337b565b92915050565b600060208284031215612766576127656130f6565b5b6000612774848285016126f8565b91505092915050565b60008060408385031215612794576127936130f6565b5b600083013567ffffffffffffffff8111156127b2576127b16130f1565b5b6127be8582860161270d565b925050602083013567ffffffffffffffff8111156127df576127de6130f1565b5b6127eb8582860161270d565b9150509250929050565b60006020828403121561280b5761280a6130f6565b5b60006128198482850161273b565b91505092915050565b60008060006060848603121561283b5761283a6130f6565b5b60006128498682870161273b565b935050602084013567ffffffffffffffff81111561286a576128696130f1565b5b6128768682870161270d565b925050604084013567ffffffffffffffff811115612897576128966130f1565b5b6128a38682870161270d565b9150509250925092565b600080604083850312156128c4576128c36130f6565b5b60006128d28582860161273b565b92505060206128e38582860161273b565b9150509250929050565b60006128f98383612b27565b60208301905092915050565b61290e81612ecb565b82525050565b61291d81612eb9565b82525050565b600061292e82612dea565b6129388185612e0d565b935061294383612dda565b8060005b8381101561297457815161295b88826128ed565b975061296683612e00565b925050600181019050612947565b5085935050505092915050565b61298a81612edd565b82525050565b600061299b82612df5565b6129a58185612e1e565b93506129b5818560208601612f22565b6129be816130fb565b840191505092915050565b60006129d6602383612e1e565b91506129e18261310c565b604082019050919050565b60006129f9601483612e1e565b9150612a048261315b565b602082019050919050565b6000612a1c601f83612e1e565b9150612a2782613184565b602082019050919050565b6000612a3f603883612e1e565b9150612a4a826131ad565b604082019050919050565b6000612a62603683612e1e565b9150612a6d826131fc565b604082019050919050565b6000612a85601a83612e1e565b9150612a908261324b565b602082019050919050565b6000612aa8601b83612e1e565b9150612ab382613274565b602082019050919050565b6000612acb602483612e1e565b9150612ad68261329d565b604082019050919050565b6000612aee600a83612e1e565b9150612af9826132ec565b602082019050919050565b6000612b11603283612e1e565b9150612b1c82613315565b604082019050919050565b612b3081612f09565b82525050565b612b3f81612f09565b82525050565b6000602082019050612b5a6000830184612905565b92915050565b600061010082019050612b76600083018b612905565b612b83602083018a612914565b8181036040830152612b958189612990565b90508181036060830152612ba98188612990565b9050612bb86080830187612981565b612bc560a0830186612981565b612bd260c0830185612b36565b612bdf60e0830184612b36565b9998505050505050505050565b60006020820190508181036000830152612c068184612923565b905092915050565b6000602082019050612c236000830184612981565b92915050565b60006020820190508181036000830152612c42816129c9565b9050919050565b60006020820190508181036000830152612c62816129ec565b9050919050565b60006020820190508181036000830152612c8281612a0f565b9050919050565b60006020820190508181036000830152612ca281612a32565b9050919050565b60006020820190508181036000830152612cc281612a55565b9050919050565b60006020820190508181036000830152612ce281612a78565b9050919050565b60006020820190508181036000830152612d0281612a9b565b9050919050565b60006020820190508181036000830152612d2281612abe565b9050919050565b60006020820190508181036000830152612d4281612ae1565b9050919050565b60006020820190508181036000830152612d6281612b04565b9050919050565b6000602082019050612d7e6000830184612b36565b92915050565b6000612d8e612d9f565b9050612d9a8282612fb1565b919050565b6000604051905090565b600067ffffffffffffffff821115612dc457612dc36130b8565b5b612dcd826130fb565b9050602081019050919050565b6000819050602082019050919050565b600081519050919050565b600081519050919050565b6000602082019050919050565b600082825260208201905092915050565b600082825260208201905092915050565b6000612e3a82612f09565b9150612e4583612f09565b9250827fffffffffffffffffffffffffffffffffffffffffffffffffffffffffffffffff03821115612e7a57612e7961302b565b5b828201905092915050565b6000612e9082612f09565b9150612e9b83612f09565b925082821015612eae57612ead61302b565b5b828203905092915050565b6000612ec482612ee9565b9050919050565b6000612ed682612ee9565b9050919050565b60008115159050919050565b600073ffffffffffffffffffffffffffffffffffffffff82169050919050565b6000819050919050565b82818337600083830152505050565b60005b83811015612f40578082015181840152602081019050612f25565b83811115612f4f576000848401525b50505050565b6000612f6082612f09565b91506000821415612f7457612f7361302b565b5b600182039050919050565b60006002820490506001821680612f9757607f821691505b60208210811415612fab57612faa61305a565b5b50919050565b612fba826130fb565b810181811067ffffffffffffffff82111715612fd957612fd86130b8565b5b80604052505050565b6000612fed82612f09565b91507fffffffffffffffffffffffffffffffffffffffffffffffffffffffffffffffff8214156130205761301f61302b565b5b600182019050919050565b7f4e487b7100000000000000000000000000000000000000000000000000000000600052601160045260246000fd5b7f4e487b7100000000000000000000000000000000000000000000000000000000600052602260045260246000fd5b7f4e487b7100000000000000000000000000000000000000000000000000000000600052603260045260246000fd5b7f4e487b7100000000000000000000000000000000000000000000000000000000600052604160045260246000fd5b600080fd5b600080fd5b600080fd5b600080fd5b6000601f19601f8301169050919050565b7f416d6f756e742070616964206973206e6f7420757020746f2073616c6520707260008201527f6963650000000000000000000000000000000000000000000000000000000000602082015250565b7f4f6e6c7920666f72206173736574206f776e6572000000000000000000000000600082015250565b7f596f7520686176652072656e746564206f757420746869732061737365742e00600082015250565b7f596f752063616e6e6f742072656e7420796f7572206f776e2061737365742e2060008201527f507574206974206f66662072656e7420696e73746561642e0000000000000000602082015250565b7f596f752063616e6e6f742062757920796f7572206f776e2061737365742e507560008201527f74206974206f66662073616c6520696e73746561642e00000000000000000000602082015250565b7f54686973206173736574206973206e6f7420666f722073616c65000000000000600082015250565b7f54686973206173736574206973206e6f7420666f722072656e742e0000000000600082015250565b7f416d6f756e742070616964206973206e6f7420757020746f2072656e7420707260008201527f6963652e00000000000000000000000000000000000000000000000000000000602082015250565b7f41646d696e206f6e6c7900000000000000000000000000000000000000000000600082015250565b7f54656e616e63792061677265656d656e74207465726d7320283330207365637360008201527f2074656e616e637929206e6f74206d65742e0000000000000000000000000000602082015250565b61336d81612eb9565b811461337857600080fd5b50565b61338481612f09565b811461338f57600080fd5b5056fea2646970667358221220f81d0ad1f1b08f638e32cc35e101d64772cc29448b3ae38779b02fb6c787704d64736f6c63430008070033",
  "immutableReferences": {},
  "source": "// SPDX-License-Identifier: MIT\npragma solidity ^0.8.7;\n\nimport \"./SafeMath.sol\";\n\ncontract AssetContract {\n    using SafeMath for uint256;\n\n    address payable public admin;\n\n    struct Asset {\n        address payable owner;\n        address rentedTo;\n        string jsonHash;\n        string photoHash;\n        bool forRent;\n        bool forSale;\n        uint256 salePrice;\n        uint256 rentPrice;\n    }\n\n    modifier isAdmin() {\n        require(admin == msg.sender, \"Admin only\");\n        _;\n    }\n\n    modifier isOwner(uint256 _assetId) {\n        require(assets[_assetId].owner == msg.sender, \"Only for asset owner\");\n        _;\n    }\n\n    Asset[] public assets;\n    mapping(address => uint256) public ownerAssetCount;\n    mapping(address => uint256) public balanceOf;\n    mapping(address => uint256) public tenantAssetCount;\n    mapping(uint256 => uint256) public tenancyExpiry;\n\n    uint256 public sellableCount;\n    uint256 public rentableCount;\n\n    constructor() payable {\n        admin = payable(msg.sender);\n    }\n\n    function assetsCount() public view returns (uint256) {\n        return assets.length;\n    }\n\n    function createAsset(string memory _jsonHash, string memory _photoHash)\n        public\n        isAdmin\n        returns (uint256)\n    {\n        Asset memory newAsset = Asset(\n            payable(msg.sender),\n            msg.sender,\n            _jsonHash,\n            _photoHash,\n            false,\n            false,\n            0,\n            0\n        );\n        assets.push(newAsset);\n        uint256 assetId = assets.length - 1;\n        ownerAssetCount[msg.sender]++;\n        tenantAssetCount[msg.sender]++;\n\n        return assetId;\n    }\n\n    function simulateExpiry(uint256 _assetId) public isOwner(_assetId) {\n        tenancyExpiry[_assetId] = 0;\n    }\n\n    function updateAsset(\n        uint256 _assetId,\n        string memory _jsonHash,\n        string memory _photoHash\n    ) public isOwner(_assetId) {\n        assets[_assetId].jsonHash = _jsonHash;\n        assets[_assetId].photoHash = _photoHash;\n    }\n\n    function putOnSale(uint256 _assetId, uint256 _price)\n        public\n        isOwner(_assetId)\n    {\n        assets[_assetId].salePrice = _price;\n        assets[_assetId].forSale = true;\n        sellableCount++;\n    }\n\n    function putOnRent(uint256 _assetId, uint256 _price)\n        public\n        isOwner(_assetId)\n    {\n        require(\n            msg.sender == assets[_assetId].rentedTo,\n            \"You have rented out this asset.\"\n        );\n        assets[_assetId].rentPrice = _price;\n        assets[_assetId].forRent = true;\n        rentableCount++;\n    }\n\n    function putOffSale(uint256 _assetId) public isOwner(_assetId) {\n        require(assets[_assetId].forSale, \"This asset is not for sale\");\n        assets[_assetId].salePrice = 0;\n        assets[_assetId].forSale = false;\n        sellableCount--;\n    }\n\n    function putOffRent(uint256 _assetId) public isOwner(_assetId) {\n        assets[_assetId].rentPrice = 0;\n        assets[_assetId].forRent = false;\n        rentableCount--;\n    }\n\n    function removeTenant(uint256 _assetId) public isOwner(_assetId) {\n        require(\n            tenancyExpiry[_assetId] <= block.timestamp,\n            \"Tenancy agreement terms (30 secs tenancy) not met.\"\n        );\n        _removeTenant(_assetId);\n    }\n\n    function buyAsset(uint256 _assetId) external payable {\n        require(assets[_assetId].forSale, \"This asset is not for sale\");\n        require(\n            msg.value >= assets[_assetId].salePrice,\n            \"Amount paid is not up to sale price\"\n        );\n        require(\n            msg.sender != assets[_assetId].owner,\n            \"You cannot buy your own asset.Put it off sale instead.\"\n        );\n\n        assets[_assetId].forSale = false;\n        assets[_assetId].salePrice = 0;\n        ownerAssetCount[assets[_assetId].owner]--;\n        balanceOf[assets[_assetId].owner] += msg.value;\n        if (assets[_assetId].rentedTo == msg.sender) {\n            _removeTenant(_assetId);\n            assets[_assetId].rentedTo = msg.sender;\n        }\n        if (assets[_assetId].owner == assets[_assetId].rentedTo) {\n            assets[_assetId].rentedTo = msg.sender;\n        }\n        assets[_assetId].owner = payable(msg.sender);\n        ownerAssetCount[assets[_assetId].owner]++;\n        sellableCount--;\n    }\n\n    function rentAsset(uint256 _assetId) external payable {\n        require(assets[_assetId].forRent, \"This asset is not for rent.\");\n        require(\n            msg.value >= assets[_assetId].rentPrice,\n            \"Amount paid is not up to rent price.\"\n        );\n\n        require(\n            msg.sender != assets[_assetId].owner,\n            \"You cannot rent your own asset. Put it off rent instead.\"\n        );\n        assets[_assetId].forRent = false;\n        assets[_assetId].rentPrice = 0;\n        assets[_assetId].rentedTo = msg.sender;\n        balanceOf[assets[_assetId].owner] += msg.value;\n        tenantAssetCount[msg.sender]++;\n        tenancyExpiry[_assetId] = block.timestamp + 30;\n        rentableCount--;\n    }\n\n    function getRentableAssets() public view returns (uint256[] memory) {\n        uint256[] memory assetIds = new uint256[](rentableCount);\n        uint256 counter = 0;\n        for (uint256 i = 0; i < assets.length; i++) {\n            if (assets[i].forRent) {\n                assetIds[counter] = i;\n                counter++;\n            }\n        }\n        return assetIds;\n    }\n\n    function getSellableAssets() public view returns (uint256[] memory) {\n        uint256[] memory assetIds = new uint256[](sellableCount);\n        uint256 counter = 0;\n        for (uint256 i = 0; i < assets.length; i++) {\n            if (assets[i].forSale) {\n                assetIds[counter] = i;\n                counter++;\n            }\n        }\n        return assetIds;\n    }\n\n    function getAssetsByOwner(address _address)\n        public\n        view\n        returns (uint256[] memory)\n    {\n        uint256[] memory assetIds = new uint256[](ownerAssetCount[_address]);\n        uint256 counter = 0;\n        for (uint256 i = 0; i < assets.length; i++) {\n            if (assets[i].owner == _address) {\n                assetIds[counter] = i;\n                counter++;\n            }\n        }\n        return assetIds;\n    }\n\n    function getRentedAssetsByTenant(address _address)\n        public\n        view\n        returns (uint256[] memory)\n    {\n        uint256[] memory assetIds = new uint256[](tenantAssetCount[_address]);\n        uint256 counter = 0;\n        for (uint256 i = 0; i < assets.length; i++) {\n            if (\n                assets[i].rentedTo == _address &&\n                assets[i].rentedTo != assets[i].owner\n            ) {\n                assetIds[counter] = i;\n                counter++;\n            }\n        }\n        return assetIds;\n    }\n\n    function expired(uint256 _assetId) public view returns (bool) {\n        return tenancyExpiry[_assetId] <= block.timestamp;\n    }\n\n    function withdraw() public {\n        payable(msg.sender).transfer(balanceOf[msg.sender]);\n        balanceOf[msg.sender] = 0;\n    }\n\n    function _removeTenant(uint256 _assetId) private {\n        tenancyExpiry[_assetId] = 0;\n        tenantAssetCount[assets[_assetId].rentedTo]--;\n        assets[_assetId].rentedTo = assets[_assetId].owner;\n    }\n}\n",
  "sourcePath": "/var/www/product/contracts/AssetContract.sol",
  "compiler": {
    "name": "solc",
    "version": "0.8.7+commit.e28d00a7.Emscripten.clang"
  },
  "schemaVersion": "3.4.10",
  "updatedAt": "2022-12-11T11:25:54.839Z",
  "networkType": "ethereum",
  "devdoc": {
    "kind": "dev",
    "methods": {},
    "version": 1
  },
  "userdoc": {
    "kind": "user",
    "methods": {},
    "version": 1
  }
}